:10000000DCC0000002C1000000C10000FEC0000012
:10001000FCC00000FAC00000F8C00000F6C00000FC
:10002000F4C00000F2C00000F0C00000EEC000000C
:10003000ECC000000C94A414E8C00000E6C000006E
:100040000C94FA23E2C000000C940C270C943E2779
:10005000DCC00000DAC00000D8C00000D6C000003C
:10006000D4C00000D2C00000001D3A2774694E536E
:10007000E8F5D2CF9C81A6BBCDD0F7EAB9A4839E88
:1000800025381F02514C6B76879ABDA0F3EEC9D478
:100090006F7255481B06213C4A57706D3E23041968
:1000A000A2BF9885D6CBECF1130E2934677A5D4058
:1000B000FBE6C1DC8F92B5A8DEC3E4F9AAB7908D48
:1000C000362B0C11425F78659489AEB3E0FDDAC738
:1000D0007C61465B0815322F5944637E2D30170A28
:1000E000B1AC8B96C5D8FFE2263B1C01524F687518
:1000F000CED3F4E9BAA7809DEBF6D1CC9F82A5B808
:10010000031E3924776A4D50A1BC9B86D5C8EFF2F7
:100110004954736E3D20071A6C71564B1805223FE7
:100120008499BEA3F0EDCAD735280F12415C7B66D7
:10013000DDC0E7FAA9B4938EF8E5C2DF8C91B6ABC7
:10014000100D2A3764795E43B2AF8895C6DBFCE1B7
:100150005A47607D2E3314097F6245580B16312CA7
:10016000978AADB0E3FED9C4000000080002010088
:100170000003040700000000000000000102040862
:100180001020408001020408102001020408102001
:10019000040404040404040402020202020203032D
:1001A0000303030300000000250028002B000000CB
:1001B0000000240027002A00632711241FBECFEF70
:1001C000D8E0DEBFCDBF12E0A0E0B1E0EEECF2E59A
:1001D00002C005900D92A03AB107D9F725E0A0EA38
:1001E000B2E001C01D92AE33B207E1F710E0CDEDF1
:1001F000D0E004C02197FE010E94F327CC3DD10737
:10020000C9F70E94FF200C946529FACEFC0191E009
:100210008091F302811190E0918308954F925F9253
:100220006F927F928F929F92AF92BF92CF92DF9206
:10023000EF92FF920F931F938091F3028F5F8230B2
:1002400008F0FAC18093F302809194049091950490
:10025000A0919604B091970480931405909315058E
:10026000A0931605B093170527E137EB41E55CEB4A
:1002700060910C0570910D0580910E0590910F0510
:100280000E9440232EE633EA49EA5FE30E94892177
:100290002AE03AEB4DEB5BE30E9440232BED3FE07D
:1002A00049E450E40E94402320E030E044E353E47A
:1002B0000E94F121609334057093350580933605D3
:1002C000909337052091BC043091BD044091BE0449
:1002D0005091BF040E9488212FE632E143E05BE3A6
:1002E0000E94F1212B013C01109230051092310542
:1002F00010923205109233052FE632E143E05BE3C2
:10030000609110057091110580911205909113056F
:100310000E94892160931005709311058093120546
:10032000909313058091E4049091E504A091E60474
:10033000B091E7048093180590931905A0931A05CE
:10034000B0931B051F9281E08F9328E931E03F9322
:100350002F931F928F9347E9842E41E0942EAA2475
:10036000A394B12C66E9C62E61E0D62E72E8E72E82
:1003700074E0F72E0CE115E028E135E044E155E0AA
:1003800064E375E080E395E00E94931280911C0580
:1003900090911D05A0911E05B0911F0580930C053D
:1003A00090930D05A0930E05B0930F05E4E9F4E0DA
:1003B000A4EEB4E00F900F900F900F900F900F905D
:1003C0004481558166817781419351936193719303
:1003D00040A551A562A573A544A355A366A377A321
:1003E00014964D915D916D917C9117974D935D930E
:1003F0006D937D9384E0E83BF80711F74092B804D1
:100400005092B9046092BA047092BB048091340592
:1004100090913505A0913605B09137058093E004A1
:100420009093E104A093E204B093E30420911405B7
:10043000309115054091160550911705C301B20181
:100440000E9488212FE632E143E05BE30E94F12124
:10045000609308057093090580930A0590930B0536
:100460001F9281E08F9328E931E03F932F931F92F1
:100470008F9387E9882E81E0982EAA24A394B12C2B
:1004800026E9C22E21E0D22E32E8E32E34E0F32E0C
:100490000CE115E028E135E044E155E064E375E066
:1004A00080E395E00E942F1482E090E00E94C0114A
:1004B0004091DA025091DB026091DC027091DD0222
:1004C00090E080E00E94BC114090F4025090F50250
:1004D0006090F6027090F7020F900F900F900F90BF
:1004E0000F900F9020E030E040E85FEBC301B201D5
:1004F0000E94ED21882331F1C090DA02D090DB0216
:10050000E090DC02F090DD02A7019601C301B20188
:100510000E9488214B015C0120E030E040E054E380
:10052000C701B6010E9440239B01AC01C501B40183
:100530000E943C23181634F08EE991E09093C50296
:100540008093C4028091F802882331F08EE991E013
:100550009093C5028093C402C090DE02D090DF0267
:10056000E090E002F090E1028FEFC81AD80AE80AA2
:10057000F80AC092DE02D092DF02E092E002F0922E
:10058000E102C114D104E104F10499F48091E20282
:100590009091E302A091E402B091E5020196A11DC1
:1005A000B11D8093E2029093E302A093E402B09322
:1005B000E5024090E6025090E7026090E8027090F9
:1005C000E9026091E2027091E3028091E40290916D
:1005D000E5020E948A22A30192010E94402320E0AA
:1005E00030E040E85FE40E9440234B015C01C7011A
:1005F000B6010E948A22A30192010E9440239B011E
:10060000AC01C501B4010E9489216093DA027093A4
:10061000DB028093DC029093DD021F910F91FF902B
:10062000EF90DF90CF90BF90AF909F908F907F9092
:100630006F905F904F9008951092F30205CECF9285
:10064000DF92EF92FF920F931F9306E814E02CE2E3
:1006500035E048E255E064E275E080E295E00E9412
:1006600012122CE235E048E255E064E275E080E2E7
:1006700095E00E944F126091EE027091EF0280911E
:10068000F0029091F1020E948A2220E030E040E8DE
:100690005FE40E9440236B017C016091EA0270914B
:1006A000EB028091EC029091ED020E948A229B0164
:1006B000AC01C701B6010E9489212FE632E143E86F
:1006C0005BE30E944023AB01BC0181E090E00E940B
:1006D000BC118091EA029091EB02A091EC02B091E2
:1006E000ED020196A11DB11D8093EA029093EB02E9
:1006F000A093EC02B093ED02892B8A2B8B2B99F4FB
:100700008091EE029091EF02A091F002B091F1027F
:100710000196A11DB11D8093EE029093EF02A0936C
:10072000F002B093F1021F910F91FF90EF90DF90D4
:10073000CF900895CF92DF92EF92FF920F931F9385
:10074000E4ECF2E085E3DF011D928A95E9F780E0B1
:1007500090E0A0E8BFEB8093F4029093F502A093A1
:10076000F602B093F7028FE692E1A3E0BBE3809339
:10077000E6029093E702A093E802B093E9028EE3C9
:1007800099E0AFE5BBEF8093C8029093C902A093B4
:10079000CA02B093CB028CE495E7A0EBB5E280935C
:1007A000CC029093CD02A093CE02B093CF0281E50C
:1007B0009AE8A5E8BAE28093D0029093D102A09380
:1007C000D202B093D30285EA9DE0AAE5B6E8809311
:1007D000D4029093D502A093D602B093D70288EBAF
:1007E00092E09093C7028093C60284EB92E09093CC
:1007F000B9028093B80282EB91E09093B5028093A6
:10080000B4029093B7028093B60288ED92E0909381
:10081000BD028093BC0288EC92E09093BB0280936F
:10082000BA028AED92E09093BF028093BE02E4E1A7
:10083000F5E084E2DF011D928A95E9F7E2E8F4E051
:1008400082E9DF011D928A95E9F7EAEAF2E08AE09F
:10085000DF011D928A95E9F780EA92E09093D90230
:100860008093D80282E190E09093A1028093A0024D
:1008700082E691E09093A3028093A2028EE391E03E
:100880009093A5028093A4028AE191E09093A7023D
:100890008093A60286E091E09093A9028093A8023B
:1008A000CC24C394D12C98E9E92E91E0F92E01E0F3
:1008B00010E027E931E041E050E066E971E082E8CC
:1008C00094E00E94921286E894E00E9411128091B6
:1008D0008E0190918F01A0919001B0919101809330
:1008E0000C0590930D05A0930E05B0930F05C090D5
:1008F0008601D0908701E0908801F09089010091F5
:100900008A0110918B0120918C0130918D014091D1
:100910009201509193016091940170919501E4E9E5
:10092000F4E08CEB94E0C192D192E192F19204A3B5
:1009300015A326A337A3DF01A45BBF4F4D935D939F
:100940006D937C9313978E179F0769F7109282041B
:1009500010928304109284041092850410928604ED
:100960001092870410928804109289041092100546
:100970001092110510921205109213051F910F91FC
:10098000FF90EF90DF90CF900895CF92DF92EF929B
:10099000FF920F931F93CC24C394D12C98E9E92E96
:1009A00091E0F92E01E010E027E931E041E050E06C
:1009B00066E971E082E894E00E94941486E894E08D
:1009C0001F910F91FF90EF90DF90CF900C946D12DC
:1009D000EF92FF920F931F93CF93DF93EA01F901F8
:1009E000DC011496ED90FC90159712964D915C9158
:1009F00013974E0D5F1D2881398118960D911C911A
:100A000019970217130730F00D911C911197012BC4
:100A100009F441C08A01021B130BDC0118968D9169
:100A20009C918E199F09800F911F86179707DCF103
:100A3000C901860F971F8417950778F47183608327
:100A400033832283158214821782168288819981CA
:100A5000680F791F7983688316C0118300833383FD
:100A60002283601B710B7583648390E080E016160F
:100A7000170614F49E2D8F2D96838783D701A60F1A
:100A8000B71FB983A88380E0DF91CF911F910F91A9
:100A9000FF90EF90089518968D919C91821B930B77
:100AA000861797075CF681E0EFCFCF92DF92EF9247
:100AB000FF92CF93DF936B0184E4869FE001879FD1
:100AC000D00D1124C750DD4F8AA99BA9009721F0B2
:100AD0000E94C3281BAA1AAA84E48C9DF0018D9D54
:100AE000F00D1124E750FD4F86A997A9009711F04A
:100AF0000E94C32884E48C9DF0018D9DF00D11248B
:100B0000E750FD4F138A128A168A178A108E118EAB
:100B1000128E138E148E158E168E178E10A211A2A1
:100B200081E090E093A382A315A214A216A217A2BB
:100B300010A611A613A612A615A614A616A617A6E9
:100B400010AA11AA13AA12AA15AA14AA17AA16AAB9
:100B500011AE10AE12AE13AE14AE15AEDF01DE96BE
:100B60001D921D921D921C921397EE5BFF4F1182F6
:100B70001082DF91CF91FF90EF90DF90CF9008959A
:100B8000CF93DF93FB01DC016D917C91DB01169625
:100B9000CD91DC918081918123E0880F991F2A9566
:100BA000E1F7AA81BB81A80FB91F8D919C91119784
:100BB00024853585220F331FEB016A817B81EB0190
:100BC000C20FD31F0990D881C02D14962D913C914E
:100BD00061E070E0232B11F062E070E0C69F9001AD
:100BE000C79F300DD69F300D1124A085B1852A9F57
:100BF000B0012B9F700D3A9F700D1124A481B58117
:100C00002A9FF0012B9FF00D3A9FF00D11248E0FBB
:100C10009F1FFA019183808373836283DF91CF9159
:100C200008952F923F924F925F926F927F928F9290
:100C30009F92AF92BF92CF92DF92EF92FF920F936B
:100C40001F93CF93DF9300D000D000D0CDB7DEB795
:100C5000DC011496ED91FC910190F081E02D8085EE
:100C600091859A838983A281B381BC83AB83FB0185
:100C700081909190A190B190C12CD12C7601C81493
:100C8000D904EA04FB04CCF026960FB6F894DEBF34
:100C90000FBECDBFDF91CF911F910F91FF90EF90CD
:100CA000DF90CF90BF90AF909F908F907F906F908C
:100CB0005F904F903F902F900895448055806680BC
:100CC00077804085518562857385CF0140969E83EC
:100CD0008D83A081B1819D0183E0220F331F8A950E
:100CE000E1F7A981BA8112968D919C91D901A80F43
:100CF000B91F2D903C9011970484F585E02DEE0FDF
:100D0000FF1F8B819C81E80FF91F0190F081E02D7E
:100D100014968D919C91892B41F581E090E0E89F9C
:100D20009001E99F300DF89F300D1124249F800120
:100D3000259F100D349F100D1124249DC001259D69
:100D4000900D349D900D1124A8016D817E81820D3E
:100D5000931D0E944C29ED81FE81E00FF11F9FEF52
:100D6000C91AD90AE90AF90A8ACF82E090E0D7CFF6
:100D7000CF93DF93DB01A756BE4F2C91222369F05E
:100D800024E4269FF001279FF00D1124E750FD4F2A
:100D9000EF0119922A95E9F71C9224E4269FF001AD
:100DA000279FF00D1124E750FD4F14821582168203
:100DB00017821186108613861286118A108A17866A
:100DC0001686DF91CF9171CE2F923F924F925F9214
:100DD0006F927F928F929F92AF92BF92CF92DF924B
:100DE000EF92FF920F931F93CF93DF93CDB7DEB7B0
:100DF00028970FB6F894DEBF0FBECDBF24E4269F20
:100E0000F001279FF00D1124E750FD4F048115815B
:100E100026813781012B022B032B09F4B7C02A014D
:100E20006B017C0110E000E0812C912C54013F010A
:100E30009F01285F3F4F3C832B83CF0104969E8305
:100E40008D83AB81BC818D919C91ED81FE81408130
:100E500051816281738184169506A606B706E4F176
:100E60000E94C328D3011A968D919C91892B09F079
:100E70007EC084E48C9DD0018D9DB00D1124A750BF
:100E8000BD4FBC83AB8350968D919C910E94C3282B
:100E9000EB81FC81868597850E94C328C701B60136
:100EA00004DEC701B60128960FB6F894DEBF0FBE68
:100EB000CDBFDF91CF911F910F91FF90EF90DF9009
:100EC000CF90BF90AF909F908F907F906F905F90EA
:100ED0004F903F902F904CCFFC01E00FF11F92817B
:100EE0009983A381AA839F83A887312C212C241462
:100EF000350464F089819A810E94C328EFEF8E1A2D
:100F00009E0AAE0ABE0A0C5F1F4F9BCFAF81B88509
:100F1000ED91FD91B887AF83309759F08481958129
:100F20000E94C328EF81F8853297808191810E94C9
:100F3000C328BFEF2B1A3B0ADACF800F911FFC01A9
:100F4000848195810E94C3282B813C812F5F3F4F74
:100F50003C832B83025F1F4FF501808191812B81A0
:100F60003C81241535054CF30E94C32882CF10E044
:100F700000E01C821B8224E42C9DC0012D9D900D5D
:100F80001124DC01AD5FBC4F5D01E6CF28960FB6A2
:100F9000F894DEBF0FBECDBFDF91CF911F910F91AF
:100FA000FF90EF90DF90CF90BF90AF909F908F9089
:100FB0007F906F905F904F903F902F90089524E422
:100FC000269FF001279FF00D1124E750FD4F8289E5
:100FD00093890497029758F485E090E0938B828B75
:100FE0008FEF9FEFDC01828F938FA48FB58F0895D1
:100FF0002F923F924F925F926F927F928F929F9229
:10100000AF92BF92CF92DF92EF92FF920F931F9316
:10101000CF93DF93CDB7DEB7AA970FB6F894DEBFB4
:101020000FBECDBF9AA389A37E8B6D8B1A01098B4E
:101030001A8B2B8B3C8B84E429893A89829F60012F
:10104000839FD00C1124860107501D4F89899A89EE
:10105000AB89BC89F80180839183A283B383AB0100
:10106000BC01CD01B1DED601A350BD4F84E0F1013A
:1010700001900D928A95E1F7F4E02F0E311C64E0A7
:1010800070E0D80114968D919C910E940D28F80172
:1010900091878087892B09F0F5C04D895E89698920
:1010A0007A898B899C8990DE81E0AA960FB6F894A4
:1010B000DEBF0FBECDBFDF91CF911F910F91FF908B
:1010C000EF90DF90CF90BF90AF909F908F907F90E8
:1010D0006F905F904F903F902F900895A9A5BAA56B
:1010E0008D919C91E98DFA8DE80FF91FF88FEF8BA8
:1010F000D1018D919C91880F991FA9A1BAA1ED9161
:10110000FC91E80FF91F80819181EF89F88D91831F
:101110008083D10114962D913D914D915C9117974B
:101120002BA33CA34DA35EA362E070E08D899E8952
:101130000E940D28EF89F88D93838283892B09F40F
:10114000ACCFF8E02F0E311C412C512C32012BA1D9
:101150003CA14DA15EA142165306640675069CF0A3
:101160002B8D3C8D4D8D5E8D2F5F3F4F4F4F5F4FD1
:101170002B8F3C8F4D8F5E8F498D5A8D4C5F5F4F0B
:101180005A8F498F90C0610124E0C20ED11CD10159
:10119000ED90FC90EE0CFF1CEF89F88D828193811D
:1011A000E80EF91E68E070E081E090E00E940D28F2
:1011B0008C01D7018D939C93892B09F46ECF84E029
:1011C000F601D80101900D928A95E1F7B8E02B0E57
:1011D000311CF80180819181A281B3811816190612
:1011E0001A061B06DCF464E070E00E940D28D801AA
:1011F00015969C938E931497892B09F44ECFD12C7E
:10120000C12C812C912C5401F80180819181A28103
:10121000B38188169906AA06BB0634F0FFEF4F1A71
:101220005F0A6F0A7F0A93CFF801E480F580EC0C27
:10123000FD1C80E1F101DE01119601900D928A956D
:10124000E1F7F0E12F0E311CA701BE016F5F7F4F68
:10125000A9A1BAA114968D919C9192DCF801868186
:101260009781D70112962D913C91820F931F9783FE
:101270008683BFEF8B1A9B0AAB0ABB0AE4E0CE0E53
:10128000D11CC2CF1A8E198E1B8E1C8E1D8E1E8EE7
:1012900018A30F8FA8014C5F5F4F58A74FA3C80139
:1012A00008969AA789A7EFA1F8A580819181A281CC
:1012B000B3812B8D3C8D4D8D5E8D281739074A07E4
:1012C0005B070CF40BCF6EE070E08D899E890E9465
:1012D0000D28AF8DB8A11B969C938E931A97B12CB5
:1012E000A12CD12CC12CF12CE12C24E4E989FA8920
:1012F0002E9FC0012F9F900D11249C012D5F3C4F0C
:10130000388F2F8B88248394912C4D895E89C41645
:10131000D50654F184E4A989BA898A9F80018B9FFC
:10132000100D112407501D4FF80115861486C701B2
:1013300033E0880F991F3A95E1F70E942728D801DA
:1013400051969C938E935097892B09F4A6CEC70192
:10135000880F991F0E942728F80197878687892B75
:1013600009F49BCE80E0A1CED1014D905D906D90AF
:101370007D901D0177FC91CEEF89F88D0081118160
:101380000A0D1B1DD80111969C928E924114510496
:101390006104710429F1C2010E942728F801958394
:1013A0008483892B09F479CEF801538242828481A7
:1013B000958197838683918780871386128681E043
:1013C00090E045284628472811F490E080E0E80E98
:1013D000F91EFFEFCF1ADF0A2EE0A20EB11C95CF47
:1013E00015961C921E921497DFCF2F923F924F9228
:1013F0005F926F927F928F929F92AF92BF92CF92A5
:10140000DF92EF92FF920F931F93CF93DF93CDB7AD
:10141000DEB76A970FB6F894DEBF0FBECDBF9E8BC6
:101420008D8B49015A0184E4829F7001839FF00CE7
:101430001124970127503D4F6901FB018081918163
:10144000F901958B848BD701A15FBC4FFB013496CA
:1014500084E001900D928A95E1F7D701AD5EBC4F13
:10146000FB01389684E001900D928A95E1F7D7014F
:10147000A95EBC4FFB013C9684E001900D928A95D9
:10148000E1F7D701A95DBC4FFB01709684E00190A4
:101490000D928A95E1F78B010C5E1F4FF90186A52D
:1014A00097A5A0A9B1A918161906DCF5880F991FF0
:1014B000880F991F0E942728F60193AB82AB892BD6
:1014C00009F4D3C0312C212C412C512C320196012E
:1014D000225D3F4F388F2F8BC601C2969A8F898F1E
:1014E000F496FC8BEB8BB301A2012FEF421A520A48
:1014F000620A720AEF89F88D80819181A281B3819D
:10150000481759076A077B070CF47BC0F60184A9CA
:1015100095A90E942728F60197AB86AB892B09F481
:10152000A4C0F80180819181A281B38124E4289D27
:10153000F001299DF00D1124E750FD4FAC01BD01D4
:101540004D7F21E030E0452B462B472B11F030E05A
:1015500020E033A322A324E4289DF001299DF00D6F
:101560001124E750FD4F0197A109B10921E030E0B6
:101570000297A105B10510F030E020E035A324A3C7
:10158000D701A15EBC4FF801349684E001900D9222
:101590008A95E1F784E4889DF001899DF00D11247E
:1015A000E750FD4F868D978DA0A1B1A1B7FF58C020
:1015B000B095A095909581959F4FAF4FBF4F82AF4B
:1015C00093AFA4AFB5AF168E178E10A211A280E014
:1015D0006A960FB6F894DEBF0FBECDBFDF91CF91F4
:1015E0001F910F91FF90EF90DF90CF90BF90AF9041
:1015F0009F908F907F906F905F904F903F902F9033
:101600000895E98DFA8D808191819C01220D331D11
:101610003A8B298B80E1F801DE01119601900D9241
:101620008A95E1F7005F1F4F49895A89BE016F5FB4
:101630007F4FED89FE8984819581A2DAEB89FC894F
:1016400080819181E989FA8922813381820F931FF8
:10165000EB89FC8991838083F4E02F0E311C43CF0A
:1016600012AE13AE14AE15AEB2CFC501B4011DDA81
:1016700081E0AECFCF92DF92EF92FF92CF93DF93D4
:101680001092810324E4269FF001279FF00D11247E
:10169000E750FD4F15A614A630E020E0D12CC12C58
:1016A000DF011A96C1E0D0E0C416D506F4F024E4B8
:1016B000269FF001279FF00D1124E750FD4F13A640
:1016C00012A611AE10AEDF01DE961D921D921D9284
:1016D0001C92139782E090E0938B828BDF91CF91E5
:1016E000FF90EF90DF90CF900895ED91FC911197CE
:1016F000E20FF31FE280F3801E141F0454F4E48011
:10170000F580F782E682F186E08613861286D18321
:10171000C083EFEFCE1ADE0A225F3F4FC5CF24E42D
:10172000269FF001279FF00D1124E750FD4F138AEB
:10173000128A4ACB24E4269FF001279FF00D112442
:10174000E750FD4F8289938981309105C8F085303B
:10175000910518F0059769F008958FEF9FEFDC0170
:10176000828F938FA48FB58F85E090E0938B828BCF
:1017700008958FEF9FEFDC01828F938FA48FB58F39
:10178000089524E4249FD001259FB00D1124A75073
:10179000BD4F2EE0AC01249FC001259F900D112468
:1017A0001A96ED91FC91E80FF91F81E08093810377
:1017B00082859385918780874085518526813781F1
:1017C00081E090E04217530711F090E080E09183B0
:1017D000808308952F923F924F925F926F927F92F3
:1017E0008F929F92AF92BF92CF92DF92EF92FF9231
:1017F0000F931F93CF93DF93CDB7DEB7C055D109B9
:101800000FB6F894DEBF0FBECDBF9EAF8DAF4BA716
:101810005CA76DA77EA76801790184E4809FF00131
:10182000819FF00D1124E750FD4F228533852396CB
:101830003FAF2EAF239782899389029761F486A5E3
:1018400097A5A0A9B1A9892B8A2B8B2BC9F584E078
:1018500090E0938B828B84E48C9DF0018D9DF00D44
:101860001124E750FD4F828993898230910509F058
:1018700037C282AD93ADA4ADB5AD22242394312CF3
:10188000181619061A061B060CF42FC2C05BDF4F90
:101890000FB6F894DEBF0FBECDBFDF91CF911F9181
:1018A0000F91FF90EF90DF90CF90BF90AF909F90FF
:1018B0008F907F906F905F904F903F902F90089502
:1018C000848995894DAD5EAD8417950721F606A9EB
:1018D00017A918AE1FAA1BAA1CAA1DAA1EAA1F017F
:1018E000CF018E9627969FAF8EAF2797DF01D296B6
:1018F0002996BFAFAEAF2997F8962B96FFAFEEAF04
:101900002B9791012A5D3F4F2D963FAF2EAF2D971C
:10191000A1014E5D5F4F2F965FAF4EAF2F970A9795
:1019200061969FAF8EAF61972796EEADFFAD27977B
:1019300080819181A281B3812BA93CA94DA95EA987
:10194000281739074A075B0744F081E090E0D1018E
:10195000D9969C938E93D8977ECF2996AEADBFAD86
:101960002997ED91FC912FA938ADE20FF31F428129
:1019700053815AAF49AF50815FAF818121968FAFBC
:1019800021972B96AEADBFAD2B978D919C91892B56
:1019900021F12D96EEADFFAD2D9780809180A28034
:1019A000B3801AAB09AB5FA72196FFAD2197F8ABC7
:1019B00029AD3AAD369527953695279525963FAFB3
:1019C0002EAF25971CAE1BAE2596AEADBFAD2597AD
:1019D000EBADFCADEA17FB070CF149AD5AAD6FADAD
:1019E00021967FAD2197C8010E944C2989AD9AADFF
:1019F0008C7F080F191F2BA93CA94DA95EA92F5F49
:101A00003F4F4F4F5F4F2BAB3CAB4DAB5EAB4FA946
:101A100058AD4C5F5F4F58AF4FAB86CF2F96AEADF2
:101A2000BFAD2F978D919C91892B71F1EFA5F8A9EE
:101A30004080518062807380A3019201C501B4018E
:101A40000E94ED21181664F0A9A9BAA92D913D9123
:101A50004D915C91C501B4010E943C231816BCF164
:101A6000A3019201C501B4010E94ED2187FF0CC0C2
:101A7000E9A9FAA92081318142815381C501B401CC
:101A80000E94ED21882319F16196AEADBFAD61973B
:101A90008D919C91892B09F445C0EFA5F8A9408050
:101AA000518062807380A3019201C501B4010E943C
:101AB0003C2318161CF5A9A9BAA92D913D914D9169
:101AC0005C91C501B4010E94ED2118165CF184E41B
:101AD0008C9DF0018D9DF00D1124E750FD4F868DFA
:101AE000978DA0A1B1A1892B8A2B8B2B69F183E063
:101AF00090E0938B828B81E090E02CC0A301920157
:101B0000C501B4010E94ED2181110CC0E9A9FAA917
:101B10002081318142815381C501B4010E94ED21B0
:101B200087FDD5CF2BAD3CAD2F5F3F4F3CAF2BAFEB
:101B300049A95AA94C5F5F4F5AAB49AB8FA598A9E9
:101B4000049698AB8FA740CF84E090E0938B828B74
:101B500086AD97AD93A782A77ECEEBADFCAD80811D
:101B60009181F401EE0FFF1FEE0FFF1FE80FF91F29
:101B7000A081B1818C9181110AC0FFEF8F1A9F0A59
:101B8000AF0ABF0A8DA29EA2AFA2B8A68FC18330B2
:101B9000A1F30280F381E02D2FA938ADE20FF31FEE
:101BA000808191819AAB89AB892B39F34F5F5F4F6D
:101BB0006F4F7F4F49875A876B877C879E01235ED3
:101BC0003F4FAE01475D5F4F64E070E0C8010E9487
:101BD000E8048111D0C18D819E81AF81B8850496C2
:101BE000A11DB11D8D839E83AF83B8874D8D5E8D02
:101BF000BE016B5D7F4F8F8D98A10E944C298BA1F8
:101C00009CA1009761F06D8D7E8DA5E2B0E0AC0FD8
:101C1000BD1F6A0F7B1F49A15AA10E944C291CAA13
:101C20001BAA412C512C3201E9A9FAA9808191818A
:101C3000A281B381481659066A067B060CF09DCF37
:101C4000E9A9FAA9848195812BA93CA9280F391FFC
:101C500038AB2FA7D90112966D917C919E01235E1E
:101C60003F4FAE01475D5F4FC8010E94E8048111FC
:101C700082C1EFA5F8A982819381092E000CAA0BDD
:101C8000BB0B4D815E816F817885840F951FA61FE8
:101C9000B71F8D839E83AF83B887608171814D8D1F
:101CA0005E8D8F8D98A10E944C298BA19CA10097DD
:101CB00061F0AFA5B8A96D917C912D8D3E8D620F1D
:101CC000731F49A15AA10E944C29BFEF4B1A5B0A0E
:101CD0006B0A7B0AEBA9FCA93496FCABEBABA4CF57
:101CE000312C212C049709F0D1CD8EE0EDADFEAD65
:101CF0008E9F80018F9F100D112423962EAD3FAD36
:101D00002397020F131FD80112964D915C911397E0
:101D10004115510509F4BACD16968D919C919AA75B
:101D200089A780E1FE013196DF011D928A95E9F7CE
:101D3000C98ADA8AEB8AFC8A2114310409F458C072
:101D400084E48C9DF0018D9DF00D1124E750FD4F32
:101D5000DF01DE968D909D90AD90BC9082AD93ADED
:101D6000A4ADB5AD88169906AA06BB0609F040C019
:101D7000F801848195810084F185E02D349624E07A
:101D8000DE01559601900D922A95E1F72D893E8945
:101D9000285F3F4F3E8B2D8BD80118966D917C911B
:101DA0001997260F371F19963C932E93189718965C
:101DB0002D913C911997480F591F241B350B37FD66
:101DC00006C0820F931F19969C938E93189784E4F4
:101DD0008C9DF0018D9DF00D1124E95CFC4FB1E06C
:101DE0008B1A9108A108B10880829182A282B382E5
:101DF0009E012B5E3F4FAE01475D5F4F64E170E097
:101E0000C8010E94E8048111B6C08CE090E0A0E017
:101E1000B0E08D839E83AF83B8879E01235E3F4FE2
:101E2000AE01475D5F4F64E070E0C8010E94E804C6
:101E30008111A1C080E190E0A0E0B0E08D839E839D
:101E4000AF83B8874D8D5E8DBE01655D7F4F8F8DF1
:101E500098A10E944C298BA19CA1009761F06D8DE7
:101E60007E8DEBE2F0E0EC0FFD1F6E0F7F1F49A1AE
:101E70005AA10E944C291DA21EA21FA218A62DAD78
:101E80003EAD220F331F38AF2FAB24E42C9DC00191
:101E90002D9D900D112487509D4FAC014C5F5F4FDD
:101EA0005AAF49AFDC011896BCAFABAF8DA09EA076
:101EB000AFA0B8A449855A856B857C85E9ADFAAD9C
:101EC00080819181A281B38188169906AA06BB06FA
:101ED0000CF443CE452B462B472B09F4D7CC8AE193
:101EE00090E0A0E0B0E089839A83AB83BC832DAD02
:101EF0003EADC901330FAA0BBB0B8D879E87AF8701
:101F0000B88B4D895E89BE016F5F7F4F8F89988D39
:101F10000E944C298B8D9C8D009761F06D897E8984
:101F200041E050E04C0F5D1F640F751F498D5A8DC5
:101F30000E944C2989A59AA5D80117969C938E9347
:101F4000169711961C921E92232809F49FCC84E4C4
:101F50008C9DF0018D9DF00D1124E95CFC4F80817A
:101F60009181A281B3810196A11DB11D80839183CE
:101F7000A283B3838BCC232809F088CC84E48C9D86
:101F8000F0018D9DF00D1124E750FD4F81E090E0B0
:101F900095A784A785E090E0938B828B77CCCF9236
:101FA000DF92EF92FF920F931F9324E4269FF0019C
:101FB000279FF00D1124E750FD4F22893389211509
:101FC000310509F452C06B017C0121303105B1F4B7
:101FD00082A593A59C012F5F3F4F33A722A7092E0F
:101FE000000CAA0BBB0B028D138D248D358D801731
:101FF0009107A207B307C9F5C7013CDB84E48C9DB8
:10200000F0018D9DF00D1124E750FD4F82899389D9
:10201000039759F582A593A59C012F5F3F4F33A7E6
:1020200022A7092E000CAA0BBB0B468D578D60A171
:1020300071A184179507A607B707BCF086AD97ADC9
:1020400093A782A784E090E0938B828B82AD93ADBF
:10205000A4ADB5AD181619061A061B0634F4EE5BCE
:10206000FF4F81E090E0918380831F910F91FF905B
:10207000EF90DF90CF90089524E4269FF001279FF2
:10208000F00D1124E750FD4F828993890497B1F434
:1020900082A593A5019693A782A7092E000CAA0BEF
:1020A000BB0B46895789608D718D84179507A607EC
:1020B000B70721F485E090E0938B828B08952F92EF
:1020C0003F924F925F926F927F928F929F92AF92C8
:1020D000BF92CF92DF92EF92FF920F931F93CF9315
:1020E000DF93CDB7DEB72E970FB6F894DEBF0FBEE5
:1020F000CDBFDC0149835A836B837C83290184E44F
:10210000849FF001859FF00D1124E750FD4F228838
:102110003388C1010497029708F0D5C011961C922C
:102120001E9213961C921E92129715861486912C5D
:10213000812C90E080E08F019F01205F3F4F388726
:102140002F833F013CE0630E711CBF01625F7F4F34
:102150007A8769873A96FC87EB87EF81F88520813B
:102160003181F30140815181E985FA85A080B180F8
:10217000841595050CF445C011965C934E93139607
:102180003C932E9312971596BC92AE921497452BC2
:10219000F9F4F5E02F163104D9F410928103F80117
:1021A000828D938DA48DB58DAE014F5F5F4F64E03E
:1021B00070E08F3F9F4FAF4FBF4F09F079C080E273
:1021C00090E064D769817A818B819C81A201A7DA32
:1021D0002E960FB6F894DEBF0FBECDBFDF91CF9124
:1021E0001F910F91FF90EF90DF90CF90BF90AF9035
:1021F0009F908F907F906F905F904F903F902F9027
:102200000895EB85FC8560817181FB01E80DF91D66
:10221000FE87ED8760817181672B89F5E084F18409
:10222000628173817E836D83668177816A01E3E0D9
:10223000CC0CDD1CEA95E1F72C0D3D1D440F551F1C
:102240004A0D5B1DFA0191838083F3014081518126
:102250004F5F5F4F51834083F901F382E282ED8546
:10226000FE8573876287E616F70670F46E197F099C
:10227000F901718360831582148217821682019698
:10228000FEE08F0E911C69CFED85FE85C480D58060
:102290004D815E814C0D5D1D4E195F09F901518321
:1022A00040836C197D0975836483D782C682E7CF2A
:1022B0008FE190E0EBD6F80113A612A681E090E042
:1022C000938B828B85CF1586148611961C921E9255
:1022D00013961C921E9212977BCFEF92FF920F9350
:1022E0001F93CF93DF937C018B01EA01ADD781115E
:1022F0001EC080919B0190919C01049711F5DF9184
:10230000CF911F910F91FF90EF90089528ED38EB3A
:1023100045E050E060E070E0CB010E94DC1BAE01C4
:10232000B801C7010E94EA1BC8010E94B51B809139
:10233000820390918303892BE1F68881882331F30E
:10234000D8CF83E090E090939C0180939B01D7CFFE
:10235000CF93DF9320919B0130919C012430310574
:1023600041F0EB010E94EA1BCE01DF91CF910C946A
:10237000B51BDF91CF9108950C94E61F0C94DB1FE1
:102380000C94C91F0C94C51B0C946D1F089570E02C
:1023900060E090E080E033C70895AF92BF92CF92A3
:1023A000DF92EF92FF920F931F93CF93DF9300D0B2
:1023B000CDB7DEB75C018B0169017A0190E080E066
:1023C000C114D104E104F10469F40F900F90DF917E
:1023D000CF911F910F91FF90EF90DF90CF90BF9022
:1023E000AF9008959C2D8D2DC114D10421E0E206FB
:1023F000F10410F09FEF8FEF9E012F5F3F4F492FA9
:10240000582FB801C5010E946F208F3F9807E9F24D
:1024100029813A81C21AD30AE108F108020F131F79
:10242000CFCF0895AF92BF92CF92DF92EF92FF92FB
:102430000F931F93CF93DF935C016B017A01E90146
:1024400020E030E040E85FE3F80160817181828143
:1024500093810E94ED21811117C040D0F501608366
:1024600071838283938343D0F60160837183828377
:10247000938346D0F701608371838283938349D02D
:10248000688379838A839B83DF91CF911F910F911A
:10249000FF90EF90DF90CF90BF90AF9008950F9393
:1024A0001F93CF93DF93E80120E030E040E85FE343
:1024B000688179818A819B810E94ED21882341F086
:1024C00080E090E0A0E8BFE388839983AA83BB8380
:1024D000DF91CF911F910F9108950895609194031A
:1024E0007091950380919603909197030895609160
:1024F0008C0370918D0380918E0390918F030895CA
:10250000609188037091890380918A0390918B0375
:102510000895609184037091850380918603909162
:102520008703089508952F923F924F925F926F9282
:102530007F928F929F92AF92BF92CF92DF92EF9253
:10254000FF920F931F93CF93DF9300D0CDB7DEB7E9
:102550002C013B015A011901898D9A8D9A83898337
:1025600020E030E040E85FE3F70160817181828123
:1025700093810E94ED2181115DC1F60180810E944D
:10258000DA249093AA038093A9034091A703509162
:10259000A8039C01241B350B3093A00320939F03B9
:1025A0006091A5037091A603FC01E61BF70BF09365
:1025B0009E03E0939D0337FF03C0319521953109B8
:1025C00030939C0320939B03BF01F7FF04C0662751
:1025D00077276E1B7F0B70939A0360939903509338
:1025E000A6034093A5039093A8038093A70340916B
:1025F000A3035091A4036D3BA2E07A070CF4E7C05B
:10260000A0919803A111E3C01E161F060CF0CAC0CA
:10261000415051095093A4034093A3034091A30355
:102620005091A4032D3BE2E03E070CF4BEC0249F72
:10263000B001259F700D349F700D1124860F971FD8
:102640009093AC038093AB033093A2032093A10338
:1026500081E0809398036091AB037091AC03072EE7
:10266000000C880B990B0E948C22F8016083718307
:1026700082839383F201C080D180E280F380C09294
:102680009403D0929503E0929603F0929703F3019E
:1026900080819181A281B38180938C0390938D037B
:1026A000A0938E03B0938F03F50180819181A28165
:1026B000B3818093880390938903A0938A03B09396
:1026C0008B03F10180819181A281B3818093840386
:1026D00090938503A0938603B093870320E030E0B6
:1026E000A901C701B6010E943C2322EE39EE45E95B
:1026F0005CE318160CF07FC0C701B6010E94F121FF
:102700000E94A7232B013C0120E030E040E85FE37A
:102710000E943C2318160CF072C080E090E0A0E804
:10272000BFE38093900390939103A0939203B0939F
:102730009303F401108120E030E0A901C701B60144
:102740000E943C2361E018160CF060E0812F0E948B
:10275000B52520E030E04FE753E46091900370919D
:10276000910380919203909193030E9440230E94D1
:102770005922E981FA8180810F900F90DF91CF91EA
:102780001F910F91FF90EF90DF90CF90BF90AF908F
:102790009F908F907F906F905F904F903F902F9081
:1027A0000C94F5244F5F5F4F35CF649F9001659F78
:1027B000300D749F300D1124820F931F9093AC0342
:1027C0008093AB037093A2036093A10341CF609108
:1027D000A1037091A203469F9001479F300D569F21
:1027E000300D1124820F931F9093AC038093AB03A1
:1027F0001092980330CFC701B60190587FCF20E0E8
:1028000030E0A901C301B2010E94ED2187FD09C09A
:1028100040929003509291036092920370929303BE
:1028200088CF10929003109291031092920310920D
:1028300093037FCF0F900F90DF91CF911F910F9156
:10284000FF90EF90DF90CF90BF90AF909F908F90D0
:102850007F906F905F904F903F902F9008958F9250
:102860009F92EF92FF920F931F93CF93DF93CDB779
:10287000DEB70D851E8520E030E040E85FE3F7011C
:1028800060817181828193810E94ED218823C9F149
:10289000F8018081482F4550550B4230510558F0C2
:1028A00097EF980F9230B0F580918100887F81601A
:1028B0008093810004C085B5887F816085BD61E01B
:1028C000F80180810E94792561E0F40180810E94F5
:1028D000792570E060E0F80180810E94F52460E0D5
:1028E000F40180810E94B52561E085E00E94792590
:1028F00080E090E0A0E8BFE3F70180839183A283AA
:10290000B383DF91CF911F910F91FF90EF909F9034
:102910008F900895877F833091F68091B100887FF2
:1029200081608093B100CBCF089540E052EC61E02C
:1029300070E090E080E000C0892B29F426E085EE6D
:1029400093E00C94AC2608951F920F920FB60F924D
:1029500011242F933F934F935F936F937F938F93A4
:102960009F93AF93BF93EF93FF9383E89FEF909371
:102970008500809384000E94A820FF91EF91BF9171
:10298000AF919F918F917F916F915F914F913F9107
:102990002F910F900FBE0F901F90189583E89FEF17
:1029A0009093850080938400AFE6B0E08C918E7F99
:1029B0008C93E0E8F0E080818C7F8083E1E8F0E0B8
:1029C0008081877E808380818460808380818C7F0A
:1029D00080838C9181608C93089581E008958F921B
:1029E0009F92AF92BF92CF92DF92EF92FF920F939E
:1029F0001F93CF93DF935C017B018A01C1E0D0E09C
:102A0000CE15DF05CCF081E0F5018083B801C70168
:102A10000E941020F5019283818390E080E0DF9195
:102A2000CF911F910F91FF90EF90DF90CF90BF90CB
:102A3000AF909F908F9008956E018FEFC81AD80ABB
:102A4000FE01EE0FFF1FE00FF11F808091808114C7
:102A5000910469F064E472E0C4010E945C29892B4E
:102A600041F4CC0FDD1FC00FD11F19821882E6017F
:102A7000C7CF67E472E0C4010E945C29892BB9F7D3
:102A8000EC14FD04A1F36E01E2E0CE0ED11CCC0FDC
:102A9000DD1FC00FD11F198218821B821A82E7CF57
:102AA0008DEA93E0089580E008950F931F93CF93EC
:102AB000DF938B01BA01E901198218829801012E76
:102AC000000C440B550BFC018181928166DC019660
:102AD00041F01983088380E0DF91CF911F910F911E
:102AE000089581E0F9CF0F931F93CF93DF9300D028
:102AF000CDB7DEB7FB018A01B9019E012F5F3F4FC1
:102B0000AF01FC01818192810E942420019669F02D
:102B100089819A81F8019183808380E00F900F90E2
:102B2000DF91CF911F910F91089581E0F7CFFC01C4
:102B3000808108950895089581E0FB01808380E0FD
:102B4000089508951092D5030895FC018181928122
:102B50000C940820CF93DF93CDB7DEB72A970FB63A
:102B6000F894DEBF0FBECDBFB0E0A0E089839A83AA
:102B7000AB83BC83CB01770FAA0BBB0B8D839E83EA
:102B8000AF83B8879E01275F3F4FAE014F5F5F4F16
:102B900068E070E08091C4039091C50386DF8111E5
:102BA00010C081E029853A852830310509F480E09C
:102BB0002A960FB6F894DEBF0FBECDBFDF91CF913E
:102BC000089581E0F5CF0F931F93CF93DF9300D04B
:102BD000CDB7DEB78B019E012F5F3F4FAC018091D7
:102BE000C4039091C50361DF81110EC081E029818A
:102BF0003A812017310709F480E00F900F90DF91A0
:102C0000CF911F910F91089581E0F7CFCF93DF937C
:102C1000EC011092C8031092C7031092D4031092D3
:102C2000D303AC0160E070E0CB010E948F0BAE01DA
:102C300061E070E080E090E00E948F0B8091C4031F
:102C40009091C503DF91CF917CCF4F925F926F92AD
:102C50007F928F929F92AF92BF92CF92DF92EF922C
:102C6000FF920F931F93CF93DF9300D0CDB7DEB7C2
:102C70008C017C0197FF03C087E0E80EF11C23E084
:102C8000F594E7942A95E1F7C80168E070E00E94A6
:102C9000BE276C010E5F1F4F8091C2039091C3034A
:102CA00080179107D4F48091C0039091C1030097DD
:102CB00031F00E94C3281092C3031092C203C801CE
:102CC0000E9427289093C1038093C003892B09F4A5
:102CD00082C01093C3030093C20310E000E047C119
:102CE000412C512C3201B12CA12C950127533C4F82
:102CF000AE014F5F5F4F61E070E08091C40390913F
:102D0000C503F1DE811149C0EFEF4E1A5E0A6E0A6B
:102D10007E0AF0E94F16FFE55F06F1E06F067104E9
:102D200044F06091D3037091D4038DEE90E012DFF4
:102D3000D7CF89819A81A80EB91E8AE0A816B1045E
:102D400009F043C049E050E070E060E089EC93E0B6
:102D50000E949A206091D3037091D403882391F14B
:102D60008091D10390E08617970781F4BC018EEE25
:102D700090E0F0DE8091D3039091D40301969927DF
:102D80009093D4038093D3030F5F1F4F0E151F053D
:102D90000CF4A6CFCD2809F07CC090E080E00F9025
:102DA0000F90DF91CF911F910F91FF90EF90DF90E7
:102DB000CF90BF90AF909F908F907F906F905F90DB
:102DC0004F9008958FEE90E0B2CFEAE0AE16B104D6
:102DD0000CF48BCFDBCF10E000E0D8CF0A30110528
:102DE00031F549E050E070E060E089EC93E00E944A
:102DF0009A206091D3037091D4038823A9F0809125
:102E0000D10390E08617970741F6BC018EEE90E063
:102E1000A1DE8091D3039091D403019699279093DA
:102E2000D4038093D303B9CF8FEE90E02BC00A3048
:102E300011050CF0B2CF980127533C4FAE014F5F04
:102E40005F4F61E070E08091C4039091C5034BDE59
:102E50008111A3CF89819A81080F191FFFEFCF1A23
:102E6000DF0AEF0AFF0A80E9C8168FE5D80681E07D
:102E7000E806F1040CF4B2CF6091D3037091D4034F
:102E80008DEE90E067DE10E000E0C12CD12C7601E1
:102E9000D2CFC12CD12C760110E000E0CCCF412C58
:102EA000512C3201B12CA12C480193E0880C991CC3
:102EB0009A95E1F72091C0033091C103C501880DB7
:102EC000991D280F391FAE014F5F5F4F61E070E021
:102ED0008091C4039091C50306DE81115ECFEFEFB0
:102EE0004E1A5E0A6E0A7E0A6091D3037091D40373
:102EF0008DEE90E0F0E94F16FFE55F06F1E06F061A
:102F000071040CF043C089819A81A80EB91E8AE031
:102F1000A816B10409F041C049E050E0B401809125
:102F2000C0039091C1030E949A206091D3037091D5
:102F3000D403882349F18091C0039091C103880E86
:102F4000991EF401808590E08617970781F4BC01F3
:102F50008EEE90E0FFDD8091D3039091D403019633
:102F600099279093D4038093D3030F5F1F4F0E15BF
:102F70001F050CF494CFC114D10409F081C08091D5
:102F8000C0039091C1030BCF8FEE90E0E3DD412CA5
:102F9000512C3201B12CA12C8DCFFAE0AF16B10427
:102FA0000CF488CFE4CF8FEE90E0D4DDF12CE12C4F
:102FB000812C912C5401970127533C4FAE014F5F58
:102FC0005F4F61E070E08091C4039091C5038BDD99
:102FD0008111E3CE8FEF881A980AA80AB80A609187
:102FE000D3037091D4038DEE90E0E0E98E16EFE507
:102FF0009E06E1E0AE06B104C4F689819A81E80E2E
:10300000F91EFAE0EF16F104A9F549E050E070E08E
:1030100060E089EC93E00E949A206091D303709164
:10302000D403882309F4BFCF8091D10390E08617A1
:10303000970709F0A4CFBC018EEE90E08BDD83E012
:10304000000F111F8A95E1F78091C0039091C10391
:10305000A60169EC73E0800F911F0E944C298091BA
:10306000D3039091D403019699279093D40380932E
:10307000D30385CF8AE0E816F1040CF49CCF7FCF10
:10308000812C912C5401F12CE12C95CFCF92DF9221
:10309000EF92FF920F931F93CF93DF931F92CDB7C1
:1030A000DEB76C017B018A01452B39F0AB0170E082
:1030B00060E0C8010E9496208983B701C6014ADDFD
:1030C00081110DC00115110551F0B701C8017BDD5B
:1030D000811105C061E070E0CE01019674DD0F90B2
:1030E000DF91CF911F910F91FF90EF90DF90CF90E4
:1030F0000895CF92DF92EF92FF92CF93DF93CDB7F7
:10310000DEB728970FB6F894DEBF0FBECDBF6B01B8
:10311000F12CE12CC982DA82EB82FC822D833E8382
:103120004F835887AE014F5F5F4F68E070E0AEDFBE
:1031300028960FB6F894DEBF0FBECDBFDF91CF91BA
:10314000FF90EF90DF90CF9008958F929F92AF9273
:10315000BF92CF92DF92EF92FF920F931F93CF9384
:10316000DF937C01EB01CA0169016FDD0097B1F4C7
:103170002FEF3FEFA90161E070E0C701BADFC1E0C6
:103180008C2FDF91CF911F910F91FF90EF90DF90E7
:10319000CF90BF90AF909F908F900895FC01819049
:1031A0009190A190B190BF01FCE1EF16F10479F488
:1031B000A5019401CE010E94F509C82FA501940133
:1031C000882369F061E070E0C70193DFD9CF9501F2
:1031D0008401AB01B601CE010E94F807EECF70E08A
:1031E00060E0C701DF91CF911F910F91FF90EF90A9
:1031F000DF90CF90BF90AF909F908F907ACF0F933A
:103200001F93CF93DF93EC018B014ADC9093C503AE
:103210008093C4030097A9F0A801BE01E0DBEC0194
:10322000892B49F08091C4039091C50383DC1092EF
:10323000C5031092C403CE01DF91CF911F910F916E
:103240000895C3E5D2E0EECF8091C4039091C50309
:103250006ECC2F923F924F925F926F927F928F929D
:103260009F92AF92BF92CF92DF92EF92FF920F9315
:103270001F93CF93DF93CDB7DEB769970FB6F8945E
:10328000DEBF0FBECDBF2091C8032223F9F05B8BB8
:103290004A8B6E877F87888B998B9A01AB01BC0123
:1032A000CE0101967C010E945F1010E048E0242EC0
:1032B000312CE88EF98E89819A81181619060CF442
:1032C00051C2112319F08A899B89A0DC69960FB637
:1032D000F894DEBF0FBECDBFDF91CF911F910F914C
:1032E000FF90EF90DF90CF90BF90AF909F908F9026
:1032F0007F906F905F904F903F902F900895EB815B
:10330000FC818C859D8533E0880F991F3A95E1F704
:10331000E80FF91F808191819093BF038093BE03D2
:1033200024813581428153815093BD034093BC0376
:10333000468157815093BB034093BA03820F931F7A
:103340009C01990F440B550B2C8B3D8B4E8B5F8B47
:10335000812C912C54018C899D89AE89BF89881656
:103360009906AA06BB0640F18C859D85880F991F9A
:10337000ED81FE81E80FF91F4E855F8568897989A7
:10338000808191810E94C10BAC85BD851196BD875E
:10339000AC8789819A81EC85FD85E817F9070CF4E3
:1033A000AECF2A893B894E855F8568897989888D6A
:1033B000998D0E945F107FCF1F826091BE03709134
:1033C000BF03CB01072E000CAA0BBB0B84017501B8
:1033D000640134E0C30ED11CE11CF11CC816D906EF
:1033E000EA06FB0608F0B3C02091BC033091BD0390
:1033F000A4014C5F5F4F240F351FF901C080D12C11
:10340000F12CE12C24013501F5E04F0E511C611C1B
:10341000711C481659066A067B0608F0A3C0209165
:10342000BC033091BD03F8013596E20FF31F2081F4
:10343000D22A2401350126E0420E511C611C711C68
:10344000481659066A067B0608F097C02091BC030F
:103450003091BD03F8013696E20FF31F2081E22A76
:103460002401350137E0430E511C611C711C4816C4
:1034700059066A067B0608F08BC02091BC03309188
:10348000BD03F8013796E20FF31F208126013701B3
:10349000722A7501640148E0C40ED11CE11CF11CC4
:1034A0008C159D05AE05BF0508F41DC1881699064B
:1034B000AA06BB0608F077C08091BC039091BD03BB
:1034C000800F911F68E070E07EDBE091BE03F09119
:1034D000BF039F010F2E000C440B550BD301C201FB
:1034E0008C0D9D1DAE1DBF1D281739074A075B07B0
:1034F00008F478C0C216D306E406F50608F05DC0ED
:103500008091BC039091BD039801285F3F4F820FCB
:10351000931FB20158DB8091BE039091BF03AC01B1
:10352000092E000C660B770BC416D506E606F706C7
:1035300008F04DC0085F1F4F8091BC039091BD0300
:10354000800F911FA20170E060E0F0D5A7C044E0B9
:1035500050E0461B570B480D591D2091BA0330917E
:10356000BB0349CFE5E0F0E0E61BF70BE00FF11FEE
:103570002091BA033091BB0358CFE6E0F0E0E61BA0
:10358000F70BE00FF11F2091BA033091BB0364CF1A
:10359000E7E0F0E0E61BF70BE00FF11F2091BA0324
:1035A0003091BB0370CF9801261B370B8091BA0373
:1035B0009091BB03820F931F85CF91012E1B3F0B70
:1035C000200F311F8091BA039091BB03A0CFD1018E
:1035D000A81BB90BCD01080F191F8091BA03909158
:1035E000BB03AECFBF0168507109601B710BC216DF
:1035F000D306E406F50608F062C08091BC03909102
:10360000BD039801285F3F4F820F931FDCDA809142
:10361000BE039091BF03B101681B790B600F711F4E
:10362000640D751D8091BA039091BB03CCDA809133
:10363000BE039091BF03AC0148505109FA01E01B51
:10364000F10BAC01092E000C660B770BC416D506E6
:10365000E606F70608F03DC08091BC039091BD03DB
:103660009801285F3F4F820F931FAF0170E060E029
:103670005DD58F832091BE033091BF03F101E21B22
:10368000F30B9F01200F311F240D351D50E040E04A
:10369000682F8091BA039091BB0334D58F8361E08A
:1036A00070E0CE0107968FDA182F38E0430E511CD8
:1036B000611C711C840C951CA61CB71C4CCE91017E
:1036C0002E1B3F0B200F311F8091BA039091BB033B
:1036D0009BCF9101281B390B200F311F8091BA031A
:1036E0009091BB03C0CF88169906AA06BB0668F561
:1036F000601B710B8091BC039091BD03800F911FE3
:1037000062DA8091BE039091BF03B101681B790B0F
:10371000600F711F640D751D8091BA039091BB03FA
:1037200052DA8091BE039091BF03AC01092E000CC8
:10373000660B770BC416D506E606F70608F4FACE34
:103740009101281B390BC90146CFC801861B970B75
:103750002091BA033091BB03B201685F7F4F820FA3
:10376000931FDECF1D861C8614CECF93DF93EC0112
:10377000AC0160E070E0CB016CDDAE0161E070E0B7
:1037800080E090E0DF91CF9164CDCF938091C4032E
:103790009091C50388D9C82F81110BC060E070E0FB
:1037A000CB010E94B80661E070E080E090E00E94EA
:1037B000B8068C2FCF9108950F931F9389019A011A
:1037C000AB01BC018091C4039091C503B4D91F9192
:1037D0000F9108954F925F926F927F928F929F9276
:1037E000AF92BF92CF92DF92EF92FF920F931F930F
:1037F000CF93DF93CDB7DEB763970FB6F894DEBFF4
:103800000FBECDBF6C018B015A018091C803882384
:1038100009F43DC08091C803882309F442C0809117
:10382000C7031A821982882309F4BEC0F0E94F2E1B
:10383000FFE55F2E66246394712CF12CE12C970137
:1038400020553C4FAE014F5F5F4F61E070E08091CB
:10385000C4039091C50347D9982E811169C089810D
:103860009A81E80EF91EE114F10409F461C081E0C7
:10387000481A51086108710859F56091D303709195
:10388000D4038DEE90E066D91A82198251C068EC9B
:1038900073E08091C4039091C5034ED9882309F445
:1038A000B9CF63960FB6F894DEBF0FBECDBFDF91E0
:1038B000CF911F910F91FF90EF90DF90CF90BF902D
:1038C000AF909F908F907F906F905F904F900895F2
:1038D000AAE0EA16F10409F061C049E050E070E0A6
:1038E00060E080EB93E026D46091D3037091D40321
:1038F000882309F450C08091B80390E08617970799
:1039000019F6BC018EEE90E025D988E0E0EBF3E0FB
:10391000DE01199601900D928A95E1F78091D3030B
:103920009091D403019699279093D4038093D30365
:1039300081E029813A81121613060CF080E0911083
:10394000C8C2882309F4ADCF8091C703811104C098
:1039500019861A861B861C8689859A85AB85BC8547
:1039600080319105A105B10508F09BCFFC01E5541C
:10397000F34E0C94F3273B1DFA1E691F511C3F1E8A
:10398000721E2B1D331D0F1D4E1F3D1F4A1F511C44
:10399000511C511CFA1C8FEE90E075CFBAE0EB166B
:1039A000F1040CF44CCFC4CFF12CE12CE8E06E2EE6
:1039B000712C29E030E02C0F3D1F2E0D3F1DAE0174
:1039C0004F5F5F4FB3016E197F098091C4039091DF
:1039D000C50389D8982E29813A81811109C0E20E48
:1039E000F31EE114F10421F0E8E0EE16F1040CF30B
:1039F00081E0A1CFD6011696ED91FC918081918155
:103A0000A281B38189839A83AB83BC83AE014F5F6C
:103A10005F4F64E070E085E190E038DB42CF8D8558
:103A20009E8513D92FEF3FEFA90161E070E0009769
:103A300071F0FC01C080D180E280F380A801C70151
:103A4000B6010E943A0BA701960170E060E08DE19B
:103A500090E04FDB26CF4D855E859801B6018BE166
:103A600090E073DB1ECF4D855E852FEF3FEFB601F3
:103A70008CE190E0F6CFD6011496ED91FC91008197
:103A80001181F80182809380A080B18070E1472E7F
:103A9000512C612C712C49825A826B827C8288E085
:103AA00090E0A0E0B0E08D839E83AF83B8879E0155
:103AB0002F5E3F4FAE014F5F5F4F68E070E0809137
:103AC000C4039091C5030E9455158823D9F010E0D6
:103AD00000E0C80163960FB6F894DEBF0FBECDBFFD
:103AE000DF91CF911F910F91FF90EF90DF90CF90DA
:103AF000BF90AF909F908F907F906F905F904F900E
:103B00000C94C32889899A89089709F7D801ED9000
:103B1000FC90B8E0EB0EF11CEE0CFF1CEE0CFF1C51
:103B2000C7010E9427288C01892B89F249825A8279
:103B30006B827C82C7010F2C000CAA0BBB0B8D8300
:103B40009E83AF83B8879E012F5E3F4FAE014F5FCC
:103B50005F4F68E070E08091C4039091C5030E94BC
:103B600055158111B6CF89899A89089709F0B1CF87
:103B7000D6011296ED91FC91408151816281738151
:103B8000D8014D935D936D937C9313974481558138
:103B90006681778114964D935D936D937C9317970F
:103BA000408551856285738518964D935D936D931D
:103BB0007C931B9784859585A685B785F8018487B6
:103BC0009587A687B787108A118A128A138A84E09C
:103BD00090E0A0E0B0E0848B958BA68BB78B8091B2
:103BE0009B0190919C01B0E0A0E0808F918FA28F0B
:103BF000B38FC5010B2C000CAA0BBB0B848F958FC8
:103C0000A68FB78FF401D801909690E080E08A15D6
:103C10009B055CF19E012F5E3F4FA801B70180918B
:103C2000C4039091C5030E945515811152CF898913
:103C30009A89E816F90609F04CCFA70170E060E018
:103C4000C80174D28B8B9E012F5E3F4FAE014D5E3B
:103C50005F4F61E070E08091C4039091C5030E94C2
:103C6000551581E08093C70334CF4191519170E0A5
:103C700060E04D935D936D937D930196C8CF8D85E4
:103C80009E85AF85B8890097A105B10521F481E033
:103C90008093C60306CE0E942516009781F481E02A
:103CA00090E0A0E0B0E089839A83AB83BC83AE014F
:103CB0004F5F5F4F64E070E082E190E0AECEBC0108
:103CC000C6010E94110619821A821B821C82AE0153
:103CD0004F5F5F4F64E070E082E190E0D7D98823C6
:103CE000B1F2DFCDD6011496ED91FC910190F081F7
:103CF000E02DE084F1848FEF8983E114F10409F46D
:103D000072C0D7016D907C90C280D38070E060E07B
:103D100090E080E08615970594F083E190E00E94A2
:103D2000AA1510E000E08111BCCD061517055CF165
:103D300061E070E0CE0101960E94E315B2CD9C01D6
:103D400043E0220F331F4A95E1F7F701A281B381C7
:103D5000A20FB31F1296ED91FC911397EE0FFF1F68
:103D6000EC0DFD1D0190F081E02D16964D915C91BA
:103D7000E49F9001E59F300DF49F300D1124620FF8
:103D8000731F0196C7CFD7011296ED91FC91C80120
:103D900023E0880F991F2A95E1F7E80FF91FA0800B
:103DA000B180A281B381AA0FBB1FAC0DBD1D2D91A7
:103DB0003C9186819781289F4001299F900C389FD4
:103DC000900C1124B401C5010E94E315582E9401F2
:103DD00050E040E06981C50195D18983511061CDE2
:103DE0000F5F1F4FA2CF70E060E083E190E00E9480
:103DF000AA1557CD50E040E070E060E081E190E02E
:103E000045D981114ECD60E070E0CB010E94DF0703
:103E100080918103882329F0A80160E070E0CB0144
:103E200018DAA80160E070E0CB010E94E40661E0CE
:103E300070E080E090E00E94DF078091810388239A
:103E400031F0A80161E070E080E090E002DAA801C2
:103E500061E070E080E090E00E94E4061092C80308
:103E60001092C7031092D4031092D3038091C4031D
:103E70009091C5030E94A21514CD81E090E090932B
:103E800083038093820350E040E070E060E086E1CD
:103E900090E0C3CD81E0F501808303CD8D859E85C3
:103EA0000E9425162FEF3FEFA90161E070E0009717
:103EB00069F0DC01CD90DD90ED90FC90C701B6017A
:103EC0000E949A0BA701960170E060E08EE190E0FD
:103ED000C0CDC8010E940616E4CCCF92DF92EF92CB
:103EE000FF92CF93DF93EC01C12CD12C7601C70157
:103EF000B6010E94DF07AE01C701B601AAD9AE0123
:103F0000C701B6010E94E4068091C0039091C103ED
:103F1000009731F00E94C3281092C1031092C00391
:103F2000CA94CD28CE28CF2879F58091C703F12CEB
:103F3000882351F050E040E070E060E084E190E0E0
:103F4000A5D8F82E1092C7038091C803882341F0AA
:103F50001092C80381E090E090939C0180939B01B4
:103F60008091C4039091C5030E94A5158091C4035C
:103F70009091C5030E949A158F2DDF91CF91FF90EC
:103F8000EF90DF90CF900895C12CD12C7601C3948F
:103F9000AECFCF93DF93EC01AC0160E070E0CB01DA
:103FA0000E94CF0FAE0161E070E080E090E0DF9111
:103FB000CF910C94CF0F60E070E0CB010E943C10D9
:103FC00061E070E080E090E00C943C10CF92DF92D2
:103FD000EF92FF920F931F93CF93DF93EC016A014F
:103FE0007B0100E010E098010E94EA0B01E010E084
:103FF00020E030E0B701A601CE010E94EA0BDF917C
:10400000CF911F910F91FF90EF90DF90CF90089587
:1040100068EE73E080E090E05CD490E080E008958A
:1040200026E040E052EC61E070E085EE93E094D64B
:1040300085EE93E0C7D5892B21F085EE93E0DCD5A2
:10404000F7CF90E080E00895CF92DF92EF92FF9259
:104050000F931F93CF93DF936B017A01E9011982CC
:10406000188285EE93E0AED5892B71F18601CC24C0
:10407000C39485E6D82E8091D503811111C085EEB9
:1040800093E0BAD585369105B1F7C092D503F80112
:10409000D1928F0188819981019699838883EBCF92
:1040A000888199818E159F0578F485EE93E0A4D5DB
:1040B0008F3F9807A9F3F80181938F018881998137
:1040C000019699838883ECCF90E080E0DF91CF91D7
:1040D0001F910F91FF90EF90DF90CF9008950F9375
:1040E0001F93CF93DF93EA01890185EE93E018D700
:1040F000F801D183C08390E080E0DF91CF911F91E0
:104100000F910895DC01A40FB51F420F531F9D01AD
:10411000281B390B2417350710F0862F0895ED91D1
:10412000E627F0E0E859FF4F6491F1CF9A01AB0127
:104130006FEFE8CFCF93FC01E60FF71FE40FF51FF9
:10414000C081F4DF91E0C81390E0892FCF910895EA
:10415000CF93DF9300D0CDB7DEB78091D80391E045
:10416000980F9093D803882369F021E030E03093D2
:10417000DB032093DA038093D8030F900F90DF9135
:10418000CF910895CE0101960E94060178940E9475
:104190000E01F8948091D80381508093D8038A81CE
:1041A000882389F08091D70391E0980F9093D703EB
:1041B000882349F021E030E03093DB032093DA03D9
:1041C0008093D703DACF8091D7038823A9F0809119
:1041D000D9038111D2CF81E08093D90378940E94D2
:1041E0001F03F8948091D70381508093D703809167
:1041F000D90381508093D9030E94BE11BECFFF9294
:104200000F931F93CF93DF931F92CDB7DEB710921A
:1042100039051092380593D30E9495140091B3018B
:104220001091B401F8011182108270E060E090E01A
:1042300080E00E94C7110E949A03F8947894C80104
:10424000C0960E94C61182E090E00E94C2111982BD
:10425000AE014F5F5F4F62E070E0F80182819381B1
:104260000E946D118981882319F081E0F80184ABE7
:104270000E94CC11F8940E94CE14F80180819181A3
:10428000892B19F481E094A9911180E0809338057D
:1042900078947894FF24F39480913805811110C0AC
:1042A0000E94C50482E090E00E94C411F89490E05E
:1042B00080E00F90DF91CF911F910F91FF900895B3
:1042C0001982AE014F5F5F4F62E070E0F8018281BA
:1042D00093810E94A8118981882311F0F801F4AA22
:1042E000F80180819181892B89F481E094A9911151
:1042F00001C080E0809339059091390581E09111EA
:1043000080E0809338050E94ED14C6CF81E0F2CFA3
:104310005058BB27AA270ED075C166D130F06BD19B
:1043200020F031F49F3F11F41EF45BC10EF4E095D0
:10433000E7FB51C1E92F77D180F3BA176207730702
:104340008407950718F071F49EF58FC10EF4E0957F
:104350000B2EBA2FA02D0B01B90190010C01CA013F
:10436000A0011124FF27591B99F0593F50F4503EEA
:1043700068F11A16F040A22F232F342F4427585FDC
:10438000F3CF469537952795A795F0405395C9F7F4
:104390007EF41F16BA0B620B730B840BBAF09150AC
:1043A000A1F0FF0FBB1F661F771F881FC2F70EC04B
:1043B000BA0F621F731F841F48F48795779567951E
:1043C000B795F7959E3F08F0B3CF9395880F08F007
:1043D0009927EE0F979587950895D9D008F481E035
:1043E00008950CD00FC107D140F0FED030F021F479
:1043F0005F3F19F0F0C0511139C1F3C014D198F3E7
:104400009923C9F35523B1F3951B550BBB27AA2755
:1044100062177307840738F09F5F5F4F220F331FC7
:10442000441FAA1FA9F333D00E2E3AF0E0E830D093
:1044300091505040E695001CCAF729D0FE2F27D096
:10444000660F771F881FBB1F261737074807AB0764
:10445000B0E809F0BB0B802DBF01FF2793585F4FD9
:104460002AF09E3F510568F0B6C000C15F3FECF3F3
:10447000983EDCF3869577956795B795F7959F5F9E
:10448000C9F7880F911D9695879597F90895E1E0F2
:10449000660F771F881FBB1F621773078407BA0751
:1044A00020F0621B730B840BBA0BEE1F88F7E095AC
:1044B000089504D06894B111D9C00895BCD088F093
:1044C0009F5790F0B92F9927B751A0F0D1F0660F00
:1044D000771F881F991F1AF0BA95C9F712C0B1301B
:1044E00081F0C3D0B1E00895C0C0672F782F88272E
:1044F000B85F39F0B93FCCF3869577956795B3955A
:10450000D9F73EF490958095709561957F4F8F4FC8
:104510009F4F0895E89409C097FB3EF490958095CD
:10452000709561957F4F8F4F9F4F9923A9F0F92F79
:1045300096E9BB279395F695879577956795B795F7
:10454000F111F8CFFAF4BB0F11F460FF1BC06F5FDD
:104550007F4F8F4F9F4F16C0882311F096E911C0EF
:10456000772321F09EE8872F762F05C0662371F010
:1045700096E8862F70E060E02AF09A95660F771F24
:10458000881FDAF7880F9695879597F90895990F00
:104590000008550FAA0BE0E8FEEF16161706E8070D
:1045A000F907C0F012161306E407F50798F0621B2E
:1045B000730B840B950B39F40A2661F0232B242B03
:1045C000252B21F408950A2609F4A140A6958FEF22
:1045D000811D811D089597F99F6780E870E060E074
:1045E00008959FEF80EC089500240A94161617068C
:1045F00018060906089500240A94121613061406D4
:1046000005060895092E0394000C11F4882352F036
:10461000BB0F40F4BF2B11F460FF04C06F5F7F4FEE
:104620008F4F9F4F089557FD9058440F551F59F0D5
:104630005F3F71F04795880F97FB991F61F09F3F8F
:1046400079F087950895121613061406551FF2CFB8
:104650004695F1DF08C0161617061806991FF1CF08
:1046600086957105610508940895E894BB2766272F
:104670007727CB0197F908958ADF08F48FEF089523
:104680000BD0C0CFB1DF28F0B6DF18F0952309F0CA
:10469000A2CFA7CF1124EACFC6DFA0F3959FD1F315
:1046A000950F50E0551F629FF001729FBB27F00DE0
:1046B000B11D639FAA27F00DB11DAA1F649F662735
:1046C000B00DA11D661F829F2227B00DA11D621F84
:1046D000739FB00DA11D621F839FA00D611D221F3E
:1046E000749F3327A00D611D231F849F600D211D22
:1046F000822F762F6A2F11249F5750408AF0E1F0C5
:1047000088234AF0EE0FFF1FBB1F661F771F881F0D
:1047100091505040A9F79E3F510570F05CCFA6CF55
:104720005F3FECF3983EDCF3869577956795B795F8
:10473000F795E7959F5FC1F7FE2B880F911D969522
:10474000879597F9089511F40EF44BCF3EC073DFAF
:10475000D0F39923D9F3CEF39F57550B87FF43D05E
:104760000024A0E640EA900180585695979528F4D9
:10477000805C660F771F881F20F0261737074807D1
:1047800030F4621B730B840B202931294A2BA69528
:1047900017940794202531254A2758F7660F771F6D
:1047A000881F20F026173707480730F4620B730B79
:1047B000840B200D311D411DA09581F7B901842F77
:1047C0009158880F9695879508959F3F31F09150A5
:1047D00020F4879577956795B795880F911D9695E5
:1047E000879597F9089591505040660F771F881F5D
:1047F000D2F708951F920F920FB60F9211242F93A4
:104800003F938F939F93AF93BF938091DD039091DC
:10481000DE03A091DF03B091E0033091DC0323E0DD
:10482000230F2D3758F50196A11DB11D2093DC03F0
:104830008093DD039093DE03A093DF03B093E00346
:104840008091E1039091E203A091E303B091E4032E
:104850000196A11DB11D8093E1039093E203A09303
:10486000E303B093E403BF91AF919F918F913F9188
:104870002F910F900FBE0F901F90189526E8230FD1
:104880000296A11DB11DD2CF3FB7F8948091E103EC
:104890009091E203A091E303B091E40326B5A89BB5
:1048A00005C02F3F19F00196A11DB11D3FBFBA2FC2
:1048B000A92F982F8827BC01CD01620F711D811D82
:1048C000911D42E0660F771F881F991F4A95D1F707
:1048D00008958F929F92AF92BF92CF92DF92EF9204
:1048E000FF926B017C01D0DF4B015C01C114D1044C
:1048F000E104F104D9F041D3C7DF681979098A09C5
:104900009B09683E73408105910580F321E0C21A3E
:10491000D108E108F10888EE880E83E0981EA11CFA
:10492000B11CC114D104E104F10431F7FF90EF9000
:10493000DF90CF90BF90AF909F908F900895789424
:1049400084B5826084BD84B5816084BD85B5826094
:1049500085BD85B5816085BDEEE6F0E08081816032
:104960008083E1E8F0E01082808182608083808132
:1049700081608083E0E8F0E0808181608083E1EB0A
:10498000F0E0808184608083E0EBF0E080818160F2
:104990008083EAE7F0E080818460808380818260A8
:1049A0008083808181608083808180688083109291
:1049B000C10008958E3008F08E5020919D0190E442
:1049C000299F900111248770822B80937C00809115
:1049D0007A00806480937A0080917A0086FDFCCF13
:1049E000809178009091790008951F93CF93DF9381
:1049F000182FEB0161E07DD0209731F460E0812F2A
:104A0000DF91CF911F91B1C0CF3FD10511F461E08B
:104A1000F6CFE12FF0E0E859FE4FE491E33031F1B9
:104A200040F4E130B1F0E230E1F0C038D1057CF77C
:104A3000E5CFE73029F1E83059F1E430B1F7809162
:104A40008000806280938000D0938B00C0938A00A6
:104A500004C084B5806884BDC7BDDF91CF911F912C
:104A6000089584B5806284BDC8BDF7CF8091800071
:104A7000806880938000D0938900C0938800EDCF38
:104A80008091B00080688093B000C093B300E5CF00
:104A90008091B00080628093B000C093B400DDCFFD
:104AA000833081F028F4813099F08230A9F00895A4
:104AB0008730A9F08830C9F08430B1F4809180004B
:104AC0008F7D03C0809180008F7780938000089550
:104AD00084B58F7784BD089584B58F7DFBCF809199
:104AE000B0008F778093B00008958091B0008F7DE3
:104AF000F9CFCF93DF9390E0FC01E458FE4F24916F
:104B000080579E4FFC0184918823C9F090E0880F64
:104B1000991FFC01E255FE4FA591B491FC01EC55A3
:104B2000FE4FC591D49161110DC09FB7F8948C913F
:104B3000209582238C938881282328839FBFDF912F
:104B4000CF910895623051F49FB7F8943C91822F31
:104B5000809583238C93E8812E2BEFCF8FB7F89429
:104B6000EC912E2B2C938FBFEACF1F93CF93DF9323
:104B7000282F30E0F901E859FE4F8491F901E458FB
:104B8000FE4FD491F901E057FE4FC491CC23A1F020
:104B9000162F811185DFEC2FF0E0EE0FFF1FEC5593
:104BA000FE4FA591B4918FB7F894EC91111108C004
:104BB000D095DE23DC938FBFDF91CF911F910895B5
:104BC000DE2BF8CFFC01918D228D892F90E0805C47
:104BD0009F4F821B91098F7399270895FC01918D36
:104BE000828D981731F0828DE80FF11D858D90E050
:104BF00008958FEF9FEF0895FC01918D828D981796
:104C000061F0A28DAE0FBF2FB11D5D968C91928D7C
:104C10009F5F9F73928F90E008958FEF9FEF0895AD
:104C2000FC01538D448D252F30E0842F90E0821BB2
:104C3000930B541710F0CF96089501970895FC0137
:104C4000A48DA80FB92FB11DA35ABF4F2C91848DED
:104C500090E001968F739927848FA689B7892C934A
:104C6000A089B1898C91837080648C93938D848D9D
:104C7000981306C00288F389E02D80818F7D8083A0
:104C80000895CF93DF93EC01888D8823B1F0AA8932
:104C9000BB89E889F9898C9185FD03C0808186FDF7
:104CA0000CC00FB607FCF7CF8C9185FFF2CF808147
:104CB00085FFEDCFCE01C3DFEACFDF91CF9108951D
:104CC000EF92FF920F931F93CF93DF93EC0181E05C
:104CD000888F9B8D8C8D98131AC0E889F989808103
:104CE00085FF15C09FB7F894EE89FF896083E88936
:104CF000F98980818370806480839FBF81E090E028
:104D0000DF91CF911F910F91FF90EF900895F62EB4
:104D10000B8D10E00F5F1F4F0F731127E02E8C8D4E
:104D20008E110BC00FB607FCFACFE889F989808194
:104D300085FFF5CFCE0183DFF2CFEB8DEC0FFD2F9A
:104D4000F11DE35AFF4FF0829FB7F8940B8FEA8969
:104D5000FB8980818062D0CFCF92DF92EF92FF9269
:104D60001F93CF93DF93EC016A017B01122FE88937
:104D7000F98982E08083C11481EED806E104F10450
:104D800099F060E079E08DE390E0A701960109D108
:104D90002150310941095109569547953795279575
:104DA000211580E1380790F0E889F989108260E8E0
:104DB00074E88EE190E0A7019601F3D0215031090B
:104DC000410951095695479537952795EC85FD85FD
:104DD0003083EE85FF852083188EEC89FD89108352
:104DE000EA89FB89808180618083EA89FB898081EF
:104DF00088608083EA89FB89808180688083EA8972
:104E0000FB8980818F7D8083DF91CF911F91FF90FF
:104E1000EF90DF90CF9008951F920F920FB60F92F0
:104E200011242F938F939F93EF93FF93E091F503BA
:104E3000F091F6038081E091FB03F091FC0382FD89
:104E40001BC090818091FE038F5F8F732091FF03C1
:104E5000821741F0E091FE03F0E0EB51FC4F958F9B
:104E60008093FE03FF91EF919F918F912F910F906F
:104E70000FBE0F901F9018958081F4CF1F920F9254
:104E80000FB60F9211242F933F934F935F936F931D
:104E90007F938F939F93AF93BF93EF93FF9385EE91
:104EA00093E0CDDEFF91EF91BF91AF919F918F91F4
:104EB0007F916F915F914F913F912F910F900FBE16
:104EC0000F901F901895E5EEF3E01382128288EEA2
:104ED00093E0A0E0B0E084839583A683B78382E962
:104EE00092E09183808385EC90E09587848784ECC1
:104EF00090E09787868780EC90E0918B808B81ECA7
:104F000090E0938B828B82EC90E0958B848B86EC87
:104F100090E0978B868B118E128E138E148E0895CF
:104F2000AF92BF92CF92DF92EF92FF920F931F93B7
:104F3000CF93DF936C017B018B01040F151FEB01F5
:104F40005E01AE18BF08C017D10759F06991D601AC
:104F5000ED91FC910190F081E02DC6010995892B1E
:104F600079F7C501DF91CF911F910F91FF90EF90DD
:104F7000DF90CF90BF90AF900895089597FB072ED4
:104F800016F4009406D077FD08D033D007FC05D086
:104F90003EF4909581959F4F0895709561957F4F50
:104FA0000895A1E21A2EAA1BBB1BFD010DC0AA1F6A
:104FB000BB1FEE1FFF1FA217B307E407F50720F082
:104FC000A21BB30BE40BF50B661F771F881F991FFD
:104FD0001A9469F760957095809590959B01AC0146
:104FE000BD01CF010895EE0FFF1F0590F491E02D54
:104FF0000994AA1BBB1B51E107C0AA1FBB1FA61720
:10500000B70710F0A61BB70B881F991F5A95A9F771
:1050100080959095BC01CD0108950F931F93CF9378
:10502000DF93869F8001879F100D969F100D11249E
:10503000C8010DD0EC01009721F0A80170E060E0FC
:1050400034D1CE01DF91CF911F910F9108950F932D
:105050001F93CF93DF938230910510F482E090E0AC
:10506000E0913C05F0913D0530E020E0B0E0A0E0AB
:10507000309799F42115310509F44AC0281B390BE2
:1050800024303105D8F58A819B816115710589F13C
:10509000FB0193838283FE0111C040815181028113
:1050A000138148175907E0F04817590799F41097EA
:1050B00061F012960C93129713961C933296CF01BF
:1050C000DF91CF911F910F91089500933C051093AC
:1050D0003D05F4CF2115310551F04217530738F043
:1050E000A901DB019A01BD01DF01F801C1CFEF0188
:1050F000F9CF90933D0580933C05CDCFFE01E20FA3
:10510000F31F819391932250310939832883D7CF9C
:1051100020913A0530913B05232B41F42091020167
:105120003091030130933B0520933A052091000113
:10513000309101012115310541F42DB73EB7409161
:10514000040150910501241B350BE0913A05F091C3
:105150003B05E217F307A0F42E1B3F0B2817390776
:1051600078F0AC014E5F5F4F2417350748F04E0FC3
:105170005F1F50933B0540933A05819391939FCFD6
:10518000F0E0E0E09CCFCF93DF930097E9F0FC01E3
:10519000329713821282A0913C05B0913D05ED013A
:1051A00030E020E01097A1F420813181820F931F1D
:1051B00020913A0530913B052817390709F061C065
:1051C000F0933B05E0933A05DF91CF910895EA0112
:1051D000CE17DF07E8F54A815B819E014115510535
:1051E000B1F7E901FB83EA8349915991C40FD51FB7
:1051F000EC17FD0761F4808191810296840F951F61
:10520000E90199838883828193819B838A83F0E07B
:10521000E0E012968D919C9113970097B9F52D912E
:105220003C911197CD010296820F931F20913A0570
:1052300030913B052817390739F6309751F5109210
:105240003D0510923C05B0933B05A0933A05BCCFB9
:10525000D383C28340815181840F951FC817D9071A
:1052600061F44E5F5F4F88819981480F591F5183C8
:1052700040838A819B81938382832115310509F0C4
:10528000B0CFF0933D05E0933C059ECFFD01DC01DE
:10529000C0CF13821282D7CFFB01DC0102C0019084
:1052A0000D9241505040D8F70895DC0101C06D9334
:1052B00041505040E0F70895FB01DC018D910190D1
:0E52C00080190110D9F3990B0895F894FFCFCF
:1052CE0000003E05800002000A0186010100000078
:1052DE000400960103000000030004001E011405E3
:1052EE0001000000090082040000000002008A0490
:1052FE000B00000005009404010000002000B50121
:10530E00BC01C601C501CE01CD01D701D601DF0119
:10531E00E901F401FA0104020D02210236023502FE
:10532E003D0204000400010001000200020004001E
:10533E000400010004000200020004000800040042
:10534E000100010004000000000000000000000049
:10535E000000000000000208050101010001536970
:10536E006D756C6174696F6E2066696E69736865C0
:10537E00640001C4027265616C5F54007265616CF9
:10538E0033325F540075696E74385F540075696E00
:10539E007431365F540075696E7433325F54006237
:1053AE006F6F6C65616E5F540066636E5F63616CF8
:1053BE006C5F5400696E745F5400706F696E746533
:1053CE00725F5400616374696F6E5F540074696D2F
:1053DE0065725F75696E7433325F706169725F54A6
:1053EE0000706879736963616C5F636F6E6E65637D
:1053FE0074696F6E0075636861725F540074696DD5
:10540E00655F54002D77002D69676E6F72652D6193
:10541E00726700436F756C64206E6F7420637265E3
:10542E006174652065787465726E616C206D6F6451
:10543E0065207573657220646174612E20204F752E
:10544E0074206F66206D656D6F72792E0A000000F4
:10545E0000006026902710264126E225FC25EE2529
:00000001FF
